{
  "_format": "hh-sol-artifact-1",
  "contractName": "NFTGramm",
  "sourceName": "contracts/NFT-Gramm.sol",
  "abi": [
    {
      "inputs": [],
      "stateMutability": "nonpayable",
      "type": "constructor"
    },
    {
      "anonymous": false,
      "inputs": [
        {
          "indexed": true,
          "internalType": "address",
          "name": "owner",
          "type": "address"
        },
        {
          "indexed": true,
          "internalType": "address",
          "name": "approved",
          "type": "address"
        },
        {
          "indexed": true,
          "internalType": "uint256",
          "name": "tokenId",
          "type": "uint256"
        }
      ],
      "name": "Approval",
      "type": "event"
    },
    {
      "anonymous": false,
      "inputs": [
        {
          "indexed": true,
          "internalType": "address",
          "name": "owner",
          "type": "address"
        },
        {
          "indexed": true,
          "internalType": "address",
          "name": "operator",
          "type": "address"
        },
        {
          "indexed": false,
          "internalType": "bool",
          "name": "approved",
          "type": "bool"
        }
      ],
      "name": "ApprovalForAll",
      "type": "event"
    },
    {
      "anonymous": false,
      "inputs": [
        {
          "indexed": true,
          "internalType": "uint256",
          "name": "tokenId",
          "type": "uint256"
        },
        {
          "indexed": false,
          "internalType": "address",
          "name": "owner",
          "type": "address"
        },
        {
          "indexed": false,
          "internalType": "address[]",
          "name": "likes",
          "type": "address[]"
        }
      ],
      "name": "ImgItemCreated",
      "type": "event"
    },
    {
      "anonymous": false,
      "inputs": [
        {
          "indexed": true,
          "internalType": "address",
          "name": "from",
          "type": "address"
        },
        {
          "indexed": true,
          "internalType": "address",
          "name": "to",
          "type": "address"
        },
        {
          "indexed": true,
          "internalType": "uint256",
          "name": "tokenId",
          "type": "uint256"
        }
      ],
      "name": "Transfer",
      "type": "event"
    },
    {
      "inputs": [
        {
          "internalType": "uint256",
          "name": "tokenId",
          "type": "uint256"
        }
      ],
      "name": "addLike",
      "outputs": [],
      "stateMutability": "nonpayable",
      "type": "function"
    },
    {
      "inputs": [
        {
          "internalType": "address",
          "name": "to",
          "type": "address"
        },
        {
          "internalType": "uint256",
          "name": "tokenId",
          "type": "uint256"
        }
      ],
      "name": "approve",
      "outputs": [],
      "stateMutability": "nonpayable",
      "type": "function"
    },
    {
      "inputs": [
        {
          "internalType": "address",
          "name": "owner",
          "type": "address"
        }
      ],
      "name": "balanceOf",
      "outputs": [
        {
          "internalType": "uint256",
          "name": "",
          "type": "uint256"
        }
      ],
      "stateMutability": "view",
      "type": "function"
    },
    {
      "inputs": [
        {
          "internalType": "string",
          "name": "tokenURI",
          "type": "string"
        }
      ],
      "name": "createToken",
      "outputs": [
        {
          "internalType": "uint256",
          "name": "",
          "type": "uint256"
        }
      ],
      "stateMutability": "nonpayable",
      "type": "function"
    },
    {
      "inputs": [],
      "name": "fetchAllNFTs",
      "outputs": [
        {
          "components": [
            {
              "internalType": "address",
              "name": "owner",
              "type": "address"
            },
            {
              "internalType": "uint256",
              "name": "tokenId",
              "type": "uint256"
            },
            {
              "internalType": "address[]",
              "name": "likes",
              "type": "address[]"
            }
          ],
          "internalType": "struct NFTGramm.ImgItem[]",
          "name": "",
          "type": "tuple[]"
        }
      ],
      "stateMutability": "view",
      "type": "function"
    },
    {
      "inputs": [
        {
          "internalType": "uint256",
          "name": "tokenId",
          "type": "uint256"
        }
      ],
      "name": "fetchAvatar",
      "outputs": [
        {
          "components": [
            {
              "internalType": "address",
              "name": "owner",
              "type": "address"
            },
            {
              "internalType": "uint256",
              "name": "tokenId",
              "type": "uint256"
            },
            {
              "internalType": "address[]",
              "name": "likes",
              "type": "address[]"
            }
          ],
          "internalType": "struct NFTGramm.ImgItem",
          "name": "",
          "type": "tuple"
        }
      ],
      "stateMutability": "view",
      "type": "function"
    },
    {
      "inputs": [
        {
          "internalType": "address",
          "name": "owner",
          "type": "address"
        }
      ],
      "name": "fetchMyNFTs",
      "outputs": [
        {
          "components": [
            {
              "internalType": "address",
              "name": "owner",
              "type": "address"
            },
            {
              "internalType": "uint256",
              "name": "tokenId",
              "type": "uint256"
            },
            {
              "internalType": "address[]",
              "name": "likes",
              "type": "address[]"
            }
          ],
          "internalType": "struct NFTGramm.ImgItem[]",
          "name": "",
          "type": "tuple[]"
        }
      ],
      "stateMutability": "view",
      "type": "function"
    },
    {
      "inputs": [
        {
          "internalType": "uint256",
          "name": "tokenId",
          "type": "uint256"
        }
      ],
      "name": "getApproved",
      "outputs": [
        {
          "internalType": "address",
          "name": "",
          "type": "address"
        }
      ],
      "stateMutability": "view",
      "type": "function"
    },
    {
      "inputs": [
        {
          "internalType": "uint256",
          "name": "",
          "type": "uint256"
        }
      ],
      "name": "idToImgItem",
      "outputs": [
        {
          "internalType": "address",
          "name": "owner",
          "type": "address"
        },
        {
          "internalType": "uint256",
          "name": "tokenId",
          "type": "uint256"
        }
      ],
      "stateMutability": "view",
      "type": "function"
    },
    {
      "inputs": [
        {
          "internalType": "address",
          "name": "owner",
          "type": "address"
        },
        {
          "internalType": "address",
          "name": "operator",
          "type": "address"
        }
      ],
      "name": "isApprovedForAll",
      "outputs": [
        {
          "internalType": "bool",
          "name": "",
          "type": "bool"
        }
      ],
      "stateMutability": "view",
      "type": "function"
    },
    {
      "inputs": [],
      "name": "name",
      "outputs": [
        {
          "internalType": "string",
          "name": "",
          "type": "string"
        }
      ],
      "stateMutability": "view",
      "type": "function"
    },
    {
      "inputs": [
        {
          "internalType": "uint256",
          "name": "tokenId",
          "type": "uint256"
        }
      ],
      "name": "ownerOf",
      "outputs": [
        {
          "internalType": "address",
          "name": "",
          "type": "address"
        }
      ],
      "stateMutability": "view",
      "type": "function"
    },
    {
      "inputs": [
        {
          "internalType": "address",
          "name": "from",
          "type": "address"
        },
        {
          "internalType": "address",
          "name": "to",
          "type": "address"
        },
        {
          "internalType": "uint256",
          "name": "tokenId",
          "type": "uint256"
        }
      ],
      "name": "safeTransferFrom",
      "outputs": [],
      "stateMutability": "nonpayable",
      "type": "function"
    },
    {
      "inputs": [
        {
          "internalType": "address",
          "name": "from",
          "type": "address"
        },
        {
          "internalType": "address",
          "name": "to",
          "type": "address"
        },
        {
          "internalType": "uint256",
          "name": "tokenId",
          "type": "uint256"
        },
        {
          "internalType": "bytes",
          "name": "_data",
          "type": "bytes"
        }
      ],
      "name": "safeTransferFrom",
      "outputs": [],
      "stateMutability": "nonpayable",
      "type": "function"
    },
    {
      "inputs": [
        {
          "internalType": "address",
          "name": "operator",
          "type": "address"
        },
        {
          "internalType": "bool",
          "name": "approved",
          "type": "bool"
        }
      ],
      "name": "setApprovalForAll",
      "outputs": [],
      "stateMutability": "nonpayable",
      "type": "function"
    },
    {
      "inputs": [
        {
          "internalType": "bytes4",
          "name": "interfaceId",
          "type": "bytes4"
        }
      ],
      "name": "supportsInterface",
      "outputs": [
        {
          "internalType": "bool",
          "name": "",
          "type": "bool"
        }
      ],
      "stateMutability": "view",
      "type": "function"
    },
    {
      "inputs": [],
      "name": "symbol",
      "outputs": [
        {
          "internalType": "string",
          "name": "",
          "type": "string"
        }
      ],
      "stateMutability": "view",
      "type": "function"
    },
    {
      "inputs": [
        {
          "internalType": "uint256",
          "name": "tokenId",
          "type": "uint256"
        }
      ],
      "name": "tokenURI",
      "outputs": [
        {
          "internalType": "string",
          "name": "",
          "type": "string"
        }
      ],
      "stateMutability": "view",
      "type": "function"
    },
    {
      "inputs": [
        {
          "internalType": "address",
          "name": "from",
          "type": "address"
        },
        {
          "internalType": "address",
          "name": "to",
          "type": "address"
        },
        {
          "internalType": "uint256",
          "name": "tokenId",
          "type": "uint256"
        }
      ],
      "name": "transferFrom",
      "outputs": [],
      "stateMutability": "nonpayable",
      "type": "function"
    }
  ],
  "bytecode": "0x60806040523480156200001157600080fd5b50604080518082018252601081526f4d657461766572736520546f6b656e7360801b6020808301918252835180850190945260048452631351551560e21b908401528151919291620000669160009162000085565b5080516200007c90600190602084019062000085565b50505062000168565b82805462000093906200012b565b90600052602060002090601f016020900481019282620000b7576000855562000102565b82601f10620000d257805160ff191683800117855562000102565b8280016001018555821562000102579182015b8281111562000102578251825591602001919060010190620000e5565b506200011092915062000114565b5090565b5b8082111562000110576000815560010162000115565b600181811c908216806200014057607f821691505b602082108114156200016257634e487b7160e01b600052602260045260246000fd5b50919050565b6120eb80620001786000396000f3fe608060405234801561001057600080fd5b50600436106101215760003560e01c806345576f94116100ad578063b85207d611610071578063b85207d614610266578063b88d4fde146102b8578063c87b56dd146102cb578063e985e9c5146102de578063ed629a9d1461031a57600080fd5b806345576f94146102045780636352211e1461022557806370a082311461023857806395d89b411461024b578063a22cb4651461025357600080fd5b806310afee1e116100f457806310afee1e146101a357806323b872dd146101c3578063378a35cd146101d65780633f0e317b146101e957806342842e0e146101f157600080fd5b806301ffc9a71461012657806306fdde031461014e578063081812fc14610163578063095ea7b31461018e575b600080fd5b610139610134366004611c5f565b61033a565b60405190151581526020015b60405180910390f35b61015661038c565b6040516101459190611eb8565b610176610171366004611cdd565b61041e565b6040516001600160a01b039091168152602001610145565b6101a161019c366004611c36565b6104ab565b005b6101b66101b1366004611afc565b6105c1565b6040516101459190611e57565b6101a16101d1366004611b48565b6107f2565b6101a16101e4366004611cdd565b610823565b6101b66109f6565b6101a16101ff366004611b48565b610b57565b610217610212366004611c97565b610b72565b604051908152602001610145565b610176610233366004611cdd565b610bac565b610217610246366004611afc565b610c23565b610156610caa565b6101a1610261366004611bfc565b610cb9565b610299610274366004611cdd565b600860205260009081526040902080546001909101546001600160a01b039091169082565b604080516001600160a01b039093168352602083019190915201610145565b6101a16102c6366004611b83565b610cc8565b6101566102d9366004611cdd565b610d00565b6101396102ec366004611b16565b6001600160a01b03918216600090815260056020908152604080832093909416825291909152205460ff1690565b61032d610328366004611cdd565b610e77565b6040516101459190611f6e565b60006001600160e01b031982166380ac58cd60e01b148061036b57506001600160e01b03198216635b5e139f60e01b145b8061038657506301ffc9a760e01b6001600160e01b03198316145b92915050565b60606000805461039b90611ff0565b80601f01602080910402602001604051908101604052809291908181526020018280546103c790611ff0565b80156104145780601f106103e957610100808354040283529160200191610414565b820191906000526020600020905b8154815290600101906020018083116103f757829003601f168201915b5050505050905090565b600061042982610f1a565b61048f5760405162461bcd60e51b815260206004820152602c60248201527f4552433732313a20617070726f76656420717565727920666f72206e6f6e657860448201526b34b9ba32b73a103a37b5b2b760a11b60648201526084015b60405180910390fd5b506000908152600460205260409020546001600160a01b031690565b60006104b682610bac565b9050806001600160a01b0316836001600160a01b031614156105245760405162461bcd60e51b815260206004820152602160248201527f4552433732313a20617070726f76616c20746f2063757272656e74206f776e656044820152603960f91b6064820152608401610486565b336001600160a01b0382161480610540575061054081336102ec565b6105b25760405162461bcd60e51b815260206004820152603860248201527f4552433732313a20617070726f76652063616c6c6572206973206e6f74206f7760448201527f6e6572206e6f7220617070726f76656420666f7220616c6c00000000000000006064820152608401610486565b6105bc8383610f37565b505050565b606060006105ce60075490565b905060008060005b83811015610637576001600160a01b038616600860006105f7846001611f81565b81526020810191909152604001600020546001600160a01b0316141561062557826106218161202b565b9350505b8061062f8161202b565b9150506105d6565b5060008267ffffffffffffffff81111561066157634e487b7160e01b600052604160045260246000fd5b60405190808252806020026020018201604052801561069a57816020015b610687611912565b81526020019060019003908161067f5790505b50905060005b848110156107e8576001600160a01b038716600860006106c1846001611f81565b81526020810191909152604001600020546001600160a01b031614156107d65760006008816106f1846001611f81565b8152602080820192909252604090810160009081206001908101548083526008855291839020835160608101855281546001600160a01b03168152918101548286015260028101805485518188028101880187528181529497509195929486949086019390929083018282801561079157602002820191906000526020600020905b81546001600160a01b03168152600190910190602001808311610773575b5050505050815250508486815181106107ba57634e487b7160e01b600052603260045260246000fd5b602002602001018190525084806107d09061202b565b95505050505b806107e08161202b565b9150506106a0565b5095945050505050565b6107fc3382610fa5565b6108185760405162461bcd60e51b815260040161048690611f1d565b6105bc83838361108e565b600081815260086020908152604080832060028101805483518186028101860190945280845291949361089593929083018282801561088b57602002820191906000526020600020905b81546001600160a01b0316815260019091019060200180831161086d575b505050505061122a565b9050806000191415610914576002828101805460018082018355600083815260208082209093018054336001600160a01b031991821617909155888252600890935260409020865481546001600160a01b039091169316929092178255808601549082015581548593919261090c9284019161193c565b505050505050565b60028201805461092690600190611fad565b8154811061094457634e487b7160e01b600052603260045260246000fd5b6000918252602090912001546002830180546001600160a01b03909216918390811061098057634e487b7160e01b600052603260045260246000fd5b9060005260206000200160006101000a8154816001600160a01b0302191690836001600160a01b03160217905550816002018054806109cf57634e487b7160e01b600052603160045260246000fd5b600082815260209020810160001990810180546001600160a01b0319169055019055505050565b60606000610a0360075490565b905060008167ffffffffffffffff811115610a2e57634e487b7160e01b600052604160045260246000fd5b604051908082528060200260200182016040528015610a6757816020015b610a54611912565b815260200190600190039081610a4c5790505b50905060005b82811015610b505760086000610a84836001611f81565b81526020808201929092526040908101600020815160608101835281546001600160a01b03168152600182015481850152600282018054845181870281018701865281815292959394860193830182828015610b0957602002820191906000526020600020905b81546001600160a01b03168152600190910190602001808311610aeb575b505050505081525050828281518110610b3257634e487b7160e01b600052603260045260246000fd5b60200260200101819052508080610b489061202b565b915050610a6d565b5092915050565b6105bc83838360405180602001604052806000815250610cc8565b6000610b82600780546001019055565b6000610b8d60075490565b9050610b99338261129a565b610ba381846113cd565b61038681611458565b6000818152600260205260408120546001600160a01b0316806103865760405162461bcd60e51b815260206004820152602960248201527f4552433732313a206f776e657220717565727920666f72206e6f6e657869737460448201526832b73a103a37b5b2b760b91b6064820152608401610486565b60006001600160a01b038216610c8e5760405162461bcd60e51b815260206004820152602a60248201527f4552433732313a2062616c616e636520717565727920666f7220746865207a65604482015269726f206164647265737360b01b6064820152608401610486565b506001600160a01b031660009081526003602052604090205490565b60606001805461039b90611ff0565b610cc4338383611511565b5050565b610cd23383610fa5565b610cee5760405162461bcd60e51b815260040161048690611f1d565b610cfa848484846115e0565b50505050565b6060610d0b82610f1a565b610d715760405162461bcd60e51b815260206004820152603160248201527f45524337323155524953746f726167653a2055524920717565727920666f72206044820152703737b732bc34b9ba32b73a103a37b5b2b760791b6064820152608401610486565b60008281526006602052604081208054610d8a90611ff0565b80601f0160208091040260200160405190810160405280929190818152602001828054610db690611ff0565b8015610e035780601f10610dd857610100808354040283529160200191610e03565b820191906000526020600020905b815481529060010190602001808311610de657829003601f168201915b505050505090506000610e2160408051602081019091526000815290565b9050805160001415610e34575092915050565b815115610e66578082604051602001610e4e929190611d8f565b60405160208183030381529060405292505050919050565b610e6f84611613565b949350505050565b610e7f611912565b600082815260086020908152604091829020825160608101845281546001600160a01b03168152600182015481840152600282018054855181860281018601875281815293959294869493860193929190830182828015610f0957602002820191906000526020600020905b81546001600160a01b03168152600190910190602001808311610eeb575b505050505081525050915050919050565b6000908152600260205260409020546001600160a01b0316151590565b600081815260046020526040902080546001600160a01b0319166001600160a01b0384169081179091558190610f6c82610bac565b6001600160a01b03167f8c5be1e5ebec7d5bd14f71427d1e84f3dd0314c0f7b2291e5b200ac8c7c3b92560405160405180910390a45050565b6000610fb082610f1a565b6110115760405162461bcd60e51b815260206004820152602c60248201527f4552433732313a206f70657261746f7220717565727920666f72206e6f6e657860448201526b34b9ba32b73a103a37b5b2b760a11b6064820152608401610486565b600061101c83610bac565b9050806001600160a01b0316846001600160a01b0316148061106357506001600160a01b0380821660009081526005602090815260408083209388168352929052205460ff165b80610e6f5750836001600160a01b031661107c8461041e565b6001600160a01b031614949350505050565b826001600160a01b03166110a182610bac565b6001600160a01b0316146111055760405162461bcd60e51b815260206004820152602560248201527f4552433732313a207472616e736665722066726f6d20696e636f72726563742060448201526437bbb732b960d91b6064820152608401610486565b6001600160a01b0382166111675760405162461bcd60e51b8152602060048201526024808201527f4552433732313a207472616e7366657220746f20746865207a65726f206164646044820152637265737360e01b6064820152608401610486565b611172600082610f37565b6001600160a01b038316600090815260036020526040812080546001929061119b908490611fad565b90915550506001600160a01b03821660009081526003602052604081208054600192906111c9908490611f81565b909155505060008181526002602052604080822080546001600160a01b0319166001600160a01b0386811691821790925591518493918716917fddf252ad1be2c89b69c2b068fc378daa952ba7f163c4a11628f55a4df523b3ef91a4505050565b6000805b825181101561129057336001600160a01b031683828151811061126157634e487b7160e01b600052603260045260246000fd5b60200260200101516001600160a01b0316141561127e5792915050565b806112888161202b565b91505061122e565b5060001992915050565b6001600160a01b0382166112f05760405162461bcd60e51b815260206004820181905260248201527f4552433732313a206d696e7420746f20746865207a65726f20616464726573736044820152606401610486565b6112f981610f1a565b156113465760405162461bcd60e51b815260206004820152601c60248201527f4552433732313a20746f6b656e20616c7265616479206d696e746564000000006044820152606401610486565b6001600160a01b038216600090815260036020526040812080546001929061136f908490611f81565b909155505060008181526002602052604080822080546001600160a01b0319166001600160a01b03861690811790915590518392907fddf252ad1be2c89b69c2b068fc378daa952ba7f163c4a11628f55a4df523b3ef908290a45050565b6113d682610f1a565b6114395760405162461bcd60e51b815260206004820152602e60248201527f45524337323155524953746f726167653a2055524920736574206f66206e6f6e60448201526d32bc34b9ba32b73a103a37b5b2b760911b6064820152608401610486565b600082815260066020908152604090912082516105bc9284019061198c565b6040805160608101825233815260208082018481528351600080825281840186528486019182528681526008845294909420835181546001600160a01b0319166001600160a01b0390911617815590516001820155925180519293926114c49260028501920190611a00565b5050604080516000815260208101918290528392507f640932bff2c5514ce150ef4636b7997e598bf5fbd634fafa2e76106b171319e091611506913391611dfb565b60405180910390a250565b816001600160a01b0316836001600160a01b031614156115735760405162461bcd60e51b815260206004820152601960248201527f4552433732313a20617070726f766520746f2063616c6c6572000000000000006044820152606401610486565b6001600160a01b03838116600081815260056020908152604080832094871680845294825291829020805460ff191686151590811790915591519182527f17307eab39ab6107e8899845ad3d59bd9653f200f220920489ca2b5937696c31910160405180910390a3505050565b6115eb84848461108e565b6115f7848484846116eb565b610cfa5760405162461bcd60e51b815260040161048690611ecb565b606061161e82610f1a565b6116825760405162461bcd60e51b815260206004820152602f60248201527f4552433732314d657461646174613a2055524920717565727920666f72206e6f60448201526e3732bc34b9ba32b73a103a37b5b2b760891b6064820152608401610486565b600061169960408051602081019091526000815290565b905060008151116116b957604051806020016040528060008152506116e4565b806116c3846117f8565b6040516020016116d4929190611d8f565b6040516020818303038152906040525b9392505050565b60006001600160a01b0384163b156117ed57604051630a85bd0160e11b81526001600160a01b0385169063150b7a029061172f903390899088908890600401611dbe565b602060405180830381600087803b15801561174957600080fd5b505af1925050508015611779575060408051601f3d908101601f1916820190925261177691810190611c7b565b60015b6117d3573d8080156117a7576040519150601f19603f3d011682016040523d82523d6000602084013e6117ac565b606091505b5080516117cb5760405162461bcd60e51b815260040161048690611ecb565b805181602001fd5b6001600160e01b031916630a85bd0160e11b149050610e6f565b506001949350505050565b60608161181c5750506040805180820190915260018152600360fc1b602082015290565b8160005b811561184657806118308161202b565b915061183f9050600a83611f99565b9150611820565b60008167ffffffffffffffff81111561186f57634e487b7160e01b600052604160045260246000fd5b6040519080825280601f01601f191660200182016040528015611899576020820181803683370190505b5090505b8415610e6f576118ae600183611fad565b91506118bb600a86612046565b6118c6906030611f81565b60f81b8183815181106118e957634e487b7160e01b600052603260045260246000fd5b60200101906001600160f81b031916908160001a90535061190b600a86611f99565b945061189d565b604051806060016040528060006001600160a01b0316815260200160008152602001606081525090565b82805482825590600052602060002090810192821561197c5760005260206000209182015b8281111561197c578254825591600101919060010190611961565b50611988929150611a55565b5090565b82805461199890611ff0565b90600052602060002090601f0160209004810192826119ba576000855561197c565b82601f106119d357805160ff191683800117855561197c565b8280016001018555821561197c579182015b8281111561197c5782518255916020019190600101906119e5565b82805482825590600052602060002090810192821561197c579160200282015b8281111561197c57825182546001600160a01b0319166001600160a01b03909116178255602090920191600190910190611a20565b5b808211156119885760008155600101611a56565b600067ffffffffffffffff80841115611a8557611a85612086565b604051601f8501601f19908116603f01168101908282118183101715611aad57611aad612086565b81604052809350858152868686011115611ac657600080fd5b858560208301376000602087830101525050509392505050565b80356001600160a01b0381168114611af757600080fd5b919050565b600060208284031215611b0d578081fd5b6116e482611ae0565b60008060408385031215611b28578081fd5b611b3183611ae0565b9150611b3f60208401611ae0565b90509250929050565b600080600060608486031215611b5c578081fd5b611b6584611ae0565b9250611b7360208501611ae0565b9150604084013590509250925092565b60008060008060808587031215611b98578081fd5b611ba185611ae0565b9350611baf60208601611ae0565b925060408501359150606085013567ffffffffffffffff811115611bd1578182fd5b8501601f81018713611be1578182fd5b611bf087823560208401611a6a565b91505092959194509250565b60008060408385031215611c0e578182fd5b611c1783611ae0565b915060208301358015158114611c2b578182fd5b809150509250929050565b60008060408385031215611c48578182fd5b611c5183611ae0565b946020939093013593505050565b600060208284031215611c70578081fd5b81356116e48161209c565b600060208284031215611c8c578081fd5b81516116e48161209c565b600060208284031215611ca8578081fd5b813567ffffffffffffffff811115611cbe578182fd5b8201601f81018413611cce578182fd5b610e6f84823560208401611a6a565b600060208284031215611cee578081fd5b5035919050565b60008151808452611d0d816020860160208601611fc4565b601f01601f19169290920160200192915050565b80516001600160a01b0390811683526020808301518185015260408084015160609186018290528051918601829052600093908301929091849060808801905b80831015611d8357855185168252948301946001929092019190830190611d61565b50979650505050505050565b60008351611da1818460208801611fc4565b835190830190611db5818360208801611fc4565b01949350505050565b6001600160a01b0385811682528416602082015260408101839052608060608201819052600090611df190830184611cf5565b9695505050505050565b6001600160a01b038381168252604060208084018290528451918401829052600092858201929091906060860190855b81811015611e49578551851683529483019491830191600101611e2b565b509098975050505050505050565b6000602080830181845280855180835260408601915060408160051b8701019250838701855b82811015611eab57603f19888603018452611e99858351611d21565b94509285019290850190600101611e7d565b5092979650505050505050565b6020815260006116e46020830184611cf5565b60208082526032908201527f4552433732313a207472616e7366657220746f206e6f6e20455243373231526560408201527131b2b4bb32b91034b6b83632b6b2b73a32b960711b606082015260800190565b60208082526031908201527f4552433732313a207472616e736665722063616c6c6572206973206e6f74206f6040820152701ddb995c881b9bdc88185c1c1c9bdd9959607a1b606082015260800190565b6020815260006116e46020830184611d21565b60008219821115611f9457611f9461205a565b500190565b600082611fa857611fa8612070565b500490565b600082821015611fbf57611fbf61205a565b500390565b60005b83811015611fdf578181015183820152602001611fc7565b83811115610cfa5750506000910152565b600181811c9082168061200457607f821691505b6020821081141561202557634e487b7160e01b600052602260045260246000fd5b50919050565b600060001982141561203f5761203f61205a565b5060010190565b60008261205557612055612070565b500690565b634e487b7160e01b600052601160045260246000fd5b634e487b7160e01b600052601260045260246000fd5b634e487b7160e01b600052604160045260246000fd5b6001600160e01b0319811681146120b257600080fd5b5056fea264697066735822122020fe392a9af5c39f3cfaa387f8f78fa9e8f5be0232073134790bd9968475be4364736f6c63430008040033",
  "linkReferences": {},
  "deployedLinkReferences": {}
}