{
  "_format": "hh-sol-artifact-1",
  "contractName": "NFTGramm",
  "sourceName": "contracts/NFT-Gramm.sol",
  "abi": [
    {
      "inputs": [],
      "stateMutability": "nonpayable",
      "type": "constructor"
    },
    {
      "anonymous": false,
      "inputs": [
        {
          "indexed": true,
          "internalType": "address",
          "name": "owner",
          "type": "address"
        },
        {
          "indexed": true,
          "internalType": "address",
          "name": "approved",
          "type": "address"
        },
        {
          "indexed": true,
          "internalType": "uint256",
          "name": "tokenId",
          "type": "uint256"
        }
      ],
      "name": "Approval",
      "type": "event"
    },
    {
      "anonymous": false,
      "inputs": [
        {
          "indexed": true,
          "internalType": "address",
          "name": "owner",
          "type": "address"
        },
        {
          "indexed": true,
          "internalType": "address",
          "name": "operator",
          "type": "address"
        },
        {
          "indexed": false,
          "internalType": "bool",
          "name": "approved",
          "type": "bool"
        }
      ],
      "name": "ApprovalForAll",
      "type": "event"
    },
    {
      "anonymous": false,
      "inputs": [
        {
          "indexed": true,
          "internalType": "uint256",
          "name": "tokenId",
          "type": "uint256"
        },
        {
          "indexed": false,
          "internalType": "address",
          "name": "owner",
          "type": "address"
        },
        {
          "indexed": false,
          "internalType": "address[]",
          "name": "likes",
          "type": "address[]"
        }
      ],
      "name": "ImgItemCreated",
      "type": "event"
    },
    {
      "anonymous": false,
      "inputs": [
        {
          "indexed": true,
          "internalType": "address",
          "name": "from",
          "type": "address"
        },
        {
          "indexed": true,
          "internalType": "address",
          "name": "to",
          "type": "address"
        },
        {
          "indexed": true,
          "internalType": "uint256",
          "name": "tokenId",
          "type": "uint256"
        }
      ],
      "name": "Transfer",
      "type": "event"
    },
    {
      "inputs": [
        {
          "internalType": "uint256",
          "name": "tokenId",
          "type": "uint256"
        }
      ],
      "name": "addLike",
      "outputs": [],
      "stateMutability": "nonpayable",
      "type": "function"
    },
    {
      "inputs": [
        {
          "internalType": "address",
          "name": "to",
          "type": "address"
        },
        {
          "internalType": "uint256",
          "name": "tokenId",
          "type": "uint256"
        }
      ],
      "name": "approve",
      "outputs": [],
      "stateMutability": "nonpayable",
      "type": "function"
    },
    {
      "inputs": [
        {
          "internalType": "address",
          "name": "owner",
          "type": "address"
        }
      ],
      "name": "balanceOf",
      "outputs": [
        {
          "internalType": "uint256",
          "name": "",
          "type": "uint256"
        }
      ],
      "stateMutability": "view",
      "type": "function"
    },
    {
      "inputs": [
        {
          "internalType": "string",
          "name": "tokenURI",
          "type": "string"
        }
      ],
      "name": "createToken",
      "outputs": [
        {
          "internalType": "uint256",
          "name": "",
          "type": "uint256"
        }
      ],
      "stateMutability": "nonpayable",
      "type": "function"
    },
    {
      "inputs": [],
      "name": "fetchMyNFTs",
      "outputs": [
        {
          "components": [
            {
              "internalType": "address",
              "name": "owner",
              "type": "address"
            },
            {
              "internalType": "uint256",
              "name": "tokenId",
              "type": "uint256"
            },
            {
              "internalType": "address[]",
              "name": "likes",
              "type": "address[]"
            }
          ],
          "internalType": "struct NFTGramm.ImgItem[]",
          "name": "",
          "type": "tuple[]"
        }
      ],
      "stateMutability": "view",
      "type": "function"
    },
    {
      "inputs": [
        {
          "internalType": "uint256",
          "name": "tokenId",
          "type": "uint256"
        }
      ],
      "name": "getApproved",
      "outputs": [
        {
          "internalType": "address",
          "name": "",
          "type": "address"
        }
      ],
      "stateMutability": "view",
      "type": "function"
    },
    {
      "inputs": [
        {
          "internalType": "uint256",
          "name": "",
          "type": "uint256"
        }
      ],
      "name": "idToImgItem",
      "outputs": [
        {
          "internalType": "address",
          "name": "owner",
          "type": "address"
        },
        {
          "internalType": "uint256",
          "name": "tokenId",
          "type": "uint256"
        }
      ],
      "stateMutability": "view",
      "type": "function"
    },
    {
      "inputs": [
        {
          "internalType": "address",
          "name": "owner",
          "type": "address"
        },
        {
          "internalType": "address",
          "name": "operator",
          "type": "address"
        }
      ],
      "name": "isApprovedForAll",
      "outputs": [
        {
          "internalType": "bool",
          "name": "",
          "type": "bool"
        }
      ],
      "stateMutability": "view",
      "type": "function"
    },
    {
      "inputs": [],
      "name": "name",
      "outputs": [
        {
          "internalType": "string",
          "name": "",
          "type": "string"
        }
      ],
      "stateMutability": "view",
      "type": "function"
    },
    {
      "inputs": [
        {
          "internalType": "uint256",
          "name": "tokenId",
          "type": "uint256"
        }
      ],
      "name": "ownerOf",
      "outputs": [
        {
          "internalType": "address",
          "name": "",
          "type": "address"
        }
      ],
      "stateMutability": "view",
      "type": "function"
    },
    {
      "inputs": [
        {
          "internalType": "address",
          "name": "from",
          "type": "address"
        },
        {
          "internalType": "address",
          "name": "to",
          "type": "address"
        },
        {
          "internalType": "uint256",
          "name": "tokenId",
          "type": "uint256"
        }
      ],
      "name": "safeTransferFrom",
      "outputs": [],
      "stateMutability": "nonpayable",
      "type": "function"
    },
    {
      "inputs": [
        {
          "internalType": "address",
          "name": "from",
          "type": "address"
        },
        {
          "internalType": "address",
          "name": "to",
          "type": "address"
        },
        {
          "internalType": "uint256",
          "name": "tokenId",
          "type": "uint256"
        },
        {
          "internalType": "bytes",
          "name": "_data",
          "type": "bytes"
        }
      ],
      "name": "safeTransferFrom",
      "outputs": [],
      "stateMutability": "nonpayable",
      "type": "function"
    },
    {
      "inputs": [
        {
          "internalType": "address",
          "name": "operator",
          "type": "address"
        },
        {
          "internalType": "bool",
          "name": "approved",
          "type": "bool"
        }
      ],
      "name": "setApprovalForAll",
      "outputs": [],
      "stateMutability": "nonpayable",
      "type": "function"
    },
    {
      "inputs": [
        {
          "internalType": "bytes4",
          "name": "interfaceId",
          "type": "bytes4"
        }
      ],
      "name": "supportsInterface",
      "outputs": [
        {
          "internalType": "bool",
          "name": "",
          "type": "bool"
        }
      ],
      "stateMutability": "view",
      "type": "function"
    },
    {
      "inputs": [],
      "name": "symbol",
      "outputs": [
        {
          "internalType": "string",
          "name": "",
          "type": "string"
        }
      ],
      "stateMutability": "view",
      "type": "function"
    },
    {
      "inputs": [
        {
          "internalType": "uint256",
          "name": "tokenId",
          "type": "uint256"
        }
      ],
      "name": "tokenURI",
      "outputs": [
        {
          "internalType": "string",
          "name": "",
          "type": "string"
        }
      ],
      "stateMutability": "view",
      "type": "function"
    },
    {
      "inputs": [
        {
          "internalType": "address",
          "name": "from",
          "type": "address"
        },
        {
          "internalType": "address",
          "name": "to",
          "type": "address"
        },
        {
          "internalType": "uint256",
          "name": "tokenId",
          "type": "uint256"
        }
      ],
      "name": "transferFrom",
      "outputs": [],
      "stateMutability": "nonpayable",
      "type": "function"
    }
  ],
  "bytecode": "0x60806040523480156200001157600080fd5b50604080518082018252601081526f4d657461766572736520546f6b656e7360801b6020808301918252835180850190945260048452631351551560e21b908401528151919291620000669160009162000085565b5080516200007c90600190602084019062000085565b50505062000168565b82805462000093906200012b565b90600052602060002090601f016020900481019282620000b7576000855562000102565b82601f10620000d257805160ff191683800117855562000102565b8280016001018555821562000102579182015b8281111562000102578251825591602001919060010190620000e5565b506200011092915062000114565b5090565b5b8082111562000110576000815560010162000115565b600181811c908216806200014057607f821691505b602082108114156200016257634e487b7160e01b600052602260045260246000fd5b50919050565b611daa80620001786000396000f3fe608060405234801561001057600080fd5b506004361061010b5760003560e01c806345576f94116100a2578063a22cb46511610071578063a22cb4651461022a578063b85207d61461023d578063b88d4fde1461028f578063c87b56dd146102a2578063e985e9c5146102b557600080fd5b806345576f94146101db5780636352211e146101fc57806370a082311461020f57806395d89b411461022257600080fd5b8063202e3740116100de578063202e37401461018d57806323b872dd146101a2578063378a35cd146101b557806342842e0e146101c857600080fd5b806301ffc9a71461011057806306fdde0314610138578063081812fc1461014d578063095ea7b314610178575b600080fd5b61012361011e366004611953565b6102f1565b60405190151581526020015b60405180910390f35b610140610343565b60405161012f9190611b8a565b61016061015b3660046119d1565b6103d5565b6040516001600160a01b03909116815260200161012f565b61018b61018636600461192a565b610462565b005b610195610578565b60405161012f9190611add565b61018b6101b036600461183c565b6107aa565b61018b6101c33660046119d1565b6107db565b61018b6101d636600461183c565b610916565b6101ee6101e936600461198b565b610931565b60405190815260200161012f565b61016061020a3660046119d1565b61096b565b6101ee61021d3660046117f0565b6109e2565b610140610a69565b61018b6102383660046118f0565b610a78565b61027061024b3660046119d1565b600860205260009081526040902080546001909101546001600160a01b039091169082565b604080516001600160a01b03909316835260208301919091520161012f565b61018b61029d366004611877565b610a87565b6101406102b03660046119d1565b610abf565b6101236102c336600461180a565b6001600160a01b03918216600090815260056020908152604080832093909416825291909152205460ff1690565b60006001600160e01b031982166380ac58cd60e01b148061032257506001600160e01b03198216635b5e139f60e01b145b8061033d57506301ffc9a760e01b6001600160e01b03198316145b92915050565b60606000805461035290611caf565b80601f016020809104026020016040519081016040528092919081815260200182805461037e90611caf565b80156103cb5780601f106103a0576101008083540402835291602001916103cb565b820191906000526020600020905b8154815290600101906020018083116103ae57829003601f168201915b5050505050905090565b60006103e082610c36565b6104465760405162461bcd60e51b815260206004820152602c60248201527f4552433732313a20617070726f76656420717565727920666f72206e6f6e657860448201526b34b9ba32b73a103a37b5b2b760a11b60648201526084015b60405180910390fd5b506000908152600460205260409020546001600160a01b031690565b600061046d8261096b565b9050806001600160a01b0316836001600160a01b031614156104db5760405162461bcd60e51b815260206004820152602160248201527f4552433732313a20617070726f76616c20746f2063757272656e74206f776e656044820152603960f91b606482015260840161043d565b336001600160a01b03821614806104f757506104f781336102c3565b6105695760405162461bcd60e51b815260206004820152603860248201527f4552433732313a20617070726f76652063616c6c6572206973206e6f74206f7760448201527f6e6572206e6f7220617070726f76656420666f7220616c6c0000000000000000606482015260840161043d565b6105738383610c53565b505050565b6060600061058560075490565b905060008060005b838110156105e55733600860006105a5846001611c40565b81526020810191909152604001600020546001600160a01b031614156105d357826105cf81611cea565b9350505b806105dd81611cea565b91505061058d565b5060008267ffffffffffffffff81111561060f57634e487b7160e01b600052604160045260246000fd5b60405190808252806020026020018201604052801561065c57816020015b6040805160608082018352600080835260208301529181019190915281526020019060019003908161062d5790505b50905060005b848110156107a157336008600061067a846001611c40565b81526020810191909152604001600020546001600160a01b0316141561078f5760006008816106aa846001611c40565b8152602080820192909252604090810160009081206001908101548083526008855291839020835160608101855281546001600160a01b03168152918101548286015260028101805485518188028101880187528181529497509195929486949086019390929083018282801561074a57602002820191906000526020600020905b81546001600160a01b0316815260019091019060200180831161072c575b50505050508152505084868151811061077357634e487b7160e01b600052603260045260246000fd5b6020026020010181905250848061078990611cea565b95505050505b8061079981611cea565b915050610662565b50949350505050565b6107b43382610cc1565b6107d05760405162461bcd60e51b815260040161043d90611bef565b610573838383610daa565b600081815260086020908152604091829020600281018054845181850281018501909552808552919361084e9390929083018282801561084457602002820191906000526020600020905b81546001600160a01b03168152600190910190602001808311610826575b5050505050610f46565b6108a45760405162461bcd60e51b815260206004820152602160248201527f596f75206861766520616c7265616479206c696b6564207468697320696d61676044820152606560f81b606482015260840161043d565b6002818101805460018082018355600083815260208082209093018054336001600160a01b031991821617909155878252600890935260409020855481546001600160a01b039091169316929092178255808501549082015581548493919261090f92840191611630565b5050505050565b61057383838360405180602001604052806000815250610a87565b6000610941600780546001019055565b600061094c60075490565b90506109583382610fb8565b61096281846110eb565b61033d81611176565b6000818152600260205260408120546001600160a01b03168061033d5760405162461bcd60e51b815260206004820152602960248201527f4552433732313a206f776e657220717565727920666f72206e6f6e657869737460448201526832b73a103a37b5b2b760b91b606482015260840161043d565b60006001600160a01b038216610a4d5760405162461bcd60e51b815260206004820152602a60248201527f4552433732313a2062616c616e636520717565727920666f7220746865207a65604482015269726f206164647265737360b01b606482015260840161043d565b506001600160a01b031660009081526003602052604090205490565b60606001805461035290611caf565b610a8333838361122f565b5050565b610a913383610cc1565b610aad5760405162461bcd60e51b815260040161043d90611bef565b610ab9848484846112fe565b50505050565b6060610aca82610c36565b610b305760405162461bcd60e51b815260206004820152603160248201527f45524337323155524953746f726167653a2055524920717565727920666f72206044820152703737b732bc34b9ba32b73a103a37b5b2b760791b606482015260840161043d565b60008281526006602052604081208054610b4990611caf565b80601f0160208091040260200160405190810160405280929190818152602001828054610b7590611caf565b8015610bc25780601f10610b9757610100808354040283529160200191610bc2565b820191906000526020600020905b815481529060010190602001808311610ba557829003601f168201915b505050505090506000610be060408051602081019091526000815290565b9050805160001415610bf3575092915050565b815115610c25578082604051602001610c0d929190611a15565b60405160208183030381529060405292505050919050565b610c2e84611331565b949350505050565b6000908152600260205260409020546001600160a01b0316151590565b600081815260046020526040902080546001600160a01b0319166001600160a01b0384169081179091558190610c888261096b565b6001600160a01b03167f8c5be1e5ebec7d5bd14f71427d1e84f3dd0314c0f7b2291e5b200ac8c7c3b92560405160405180910390a45050565b6000610ccc82610c36565b610d2d5760405162461bcd60e51b815260206004820152602c60248201527f4552433732313a206f70657261746f7220717565727920666f72206e6f6e657860448201526b34b9ba32b73a103a37b5b2b760a11b606482015260840161043d565b6000610d388361096b565b9050806001600160a01b0316846001600160a01b03161480610d7f57506001600160a01b0380821660009081526005602090815260408083209388168352929052205460ff165b80610c2e5750836001600160a01b0316610d98846103d5565b6001600160a01b031614949350505050565b826001600160a01b0316610dbd8261096b565b6001600160a01b031614610e215760405162461bcd60e51b815260206004820152602560248201527f4552433732313a207472616e736665722066726f6d20696e636f72726563742060448201526437bbb732b960d91b606482015260840161043d565b6001600160a01b038216610e835760405162461bcd60e51b8152602060048201526024808201527f4552433732313a207472616e7366657220746f20746865207a65726f206164646044820152637265737360e01b606482015260840161043d565b610e8e600082610c53565b6001600160a01b0383166000908152600360205260408120805460019290610eb7908490611c6c565b90915550506001600160a01b0382166000908152600360205260408120805460019290610ee5908490611c40565b909155505060008181526002602052604080822080546001600160a01b0319166001600160a01b0386811691821790925591518493918716917fddf252ad1be2c89b69c2b068fc378daa952ba7f163c4a11628f55a4df523b3ef91a4505050565b6000805b8251811015610faf57336001600160a01b0316838281518110610f7d57634e487b7160e01b600052603260045260246000fd5b60200260200101516001600160a01b03161415610f9d5750600092915050565b80610fa781611cea565b915050610f4a565b50600192915050565b6001600160a01b03821661100e5760405162461bcd60e51b815260206004820181905260248201527f4552433732313a206d696e7420746f20746865207a65726f2061646472657373604482015260640161043d565b61101781610c36565b156110645760405162461bcd60e51b815260206004820152601c60248201527f4552433732313a20746f6b656e20616c7265616479206d696e74656400000000604482015260640161043d565b6001600160a01b038216600090815260036020526040812080546001929061108d908490611c40565b909155505060008181526002602052604080822080546001600160a01b0319166001600160a01b03861690811790915590518392907fddf252ad1be2c89b69c2b068fc378daa952ba7f163c4a11628f55a4df523b3ef908290a45050565b6110f482610c36565b6111575760405162461bcd60e51b815260206004820152602e60248201527f45524337323155524953746f726167653a2055524920736574206f66206e6f6e60448201526d32bc34b9ba32b73a103a37b5b2b760911b606482015260840161043d565b6000828152600660209081526040909120825161057392840190611680565b6040805160608101825233815260208082018481528351600080825281840186528486019182528681526008845294909420835181546001600160a01b0319166001600160a01b0390911617815590516001820155925180519293926111e292600285019201906116f4565b5050604080516000815260208101918290528392507f640932bff2c5514ce150ef4636b7997e598bf5fbd634fafa2e76106b171319e091611224913391611a81565b60405180910390a250565b816001600160a01b0316836001600160a01b031614156112915760405162461bcd60e51b815260206004820152601960248201527f4552433732313a20617070726f766520746f2063616c6c657200000000000000604482015260640161043d565b6001600160a01b03838116600081815260056020908152604080832094871680845294825291829020805460ff191686151590811790915591519182527f17307eab39ab6107e8899845ad3d59bd9653f200f220920489ca2b5937696c31910160405180910390a3505050565b611309848484610daa565b61131584848484611409565b610ab95760405162461bcd60e51b815260040161043d90611b9d565b606061133c82610c36565b6113a05760405162461bcd60e51b815260206004820152602f60248201527f4552433732314d657461646174613a2055524920717565727920666f72206e6f60448201526e3732bc34b9ba32b73a103a37b5b2b760891b606482015260840161043d565b60006113b760408051602081019091526000815290565b905060008151116113d75760405180602001604052806000815250611402565b806113e184611516565b6040516020016113f2929190611a15565b6040516020818303038152906040525b9392505050565b60006001600160a01b0384163b1561150b57604051630a85bd0160e11b81526001600160a01b0385169063150b7a029061144d903390899088908890600401611a44565b602060405180830381600087803b15801561146757600080fd5b505af1925050508015611497575060408051601f3d908101601f191682019092526114949181019061196f565b60015b6114f1573d8080156114c5576040519150601f19603f3d011682016040523d82523d6000602084013e6114ca565b606091505b5080516114e95760405162461bcd60e51b815260040161043d90611b9d565b805181602001fd5b6001600160e01b031916630a85bd0160e11b149050610c2e565b506001949350505050565b60608161153a5750506040805180820190915260018152600360fc1b602082015290565b8160005b8115611564578061154e81611cea565b915061155d9050600a83611c58565b915061153e565b60008167ffffffffffffffff81111561158d57634e487b7160e01b600052604160045260246000fd5b6040519080825280601f01601f1916602001820160405280156115b7576020820181803683370190505b5090505b8415610c2e576115cc600183611c6c565b91506115d9600a86611d05565b6115e4906030611c40565b60f81b81838151811061160757634e487b7160e01b600052603260045260246000fd5b60200101906001600160f81b031916908160001a905350611629600a86611c58565b94506115bb565b8280548282559060005260206000209081019282156116705760005260206000209182015b82811115611670578254825591600101919060010190611655565b5061167c929150611749565b5090565b82805461168c90611caf565b90600052602060002090601f0160209004810192826116ae5760008555611670565b82601f106116c757805160ff1916838001178555611670565b82800160010185558215611670579182015b828111156116705782518255916020019190600101906116d9565b828054828255906000526020600020908101928215611670579160200282015b8281111561167057825182546001600160a01b0319166001600160a01b03909116178255602090920191600190910190611714565b5b8082111561167c576000815560010161174a565b600067ffffffffffffffff8084111561177957611779611d45565b604051601f8501601f19908116603f011681019082821181831017156117a1576117a1611d45565b816040528093508581528686860111156117ba57600080fd5b858560208301376000602087830101525050509392505050565b80356001600160a01b03811681146117eb57600080fd5b919050565b600060208284031215611801578081fd5b611402826117d4565b6000806040838503121561181c578081fd5b611825836117d4565b9150611833602084016117d4565b90509250929050565b600080600060608486031215611850578081fd5b611859846117d4565b9250611867602085016117d4565b9150604084013590509250925092565b6000806000806080858703121561188c578081fd5b611895856117d4565b93506118a3602086016117d4565b925060408501359150606085013567ffffffffffffffff8111156118c5578182fd5b8501601f810187136118d5578182fd5b6118e48782356020840161175e565b91505092959194509250565b60008060408385031215611902578182fd5b61190b836117d4565b91506020830135801515811461191f578182fd5b809150509250929050565b6000806040838503121561193c578182fd5b611945836117d4565b946020939093013593505050565b600060208284031215611964578081fd5b813561140281611d5b565b600060208284031215611980578081fd5b815161140281611d5b565b60006020828403121561199c578081fd5b813567ffffffffffffffff8111156119b2578182fd5b8201601f810184136119c2578182fd5b610c2e8482356020840161175e565b6000602082840312156119e2578081fd5b5035919050565b60008151808452611a01816020860160208601611c83565b601f01601f19169290920160200192915050565b60008351611a27818460208801611c83565b835190830190611a3b818360208801611c83565b01949350505050565b6001600160a01b0385811682528416602082015260408101839052608060608201819052600090611a77908301846119e9565b9695505050505050565b6001600160a01b038381168252604060208084018290528451918401829052600092858201929091906060860190855b81811015611acf578551851683529483019491830191600101611ab1565b509098975050505050505050565b60006020808301818452808551808352604092508286019150828160051b870101848801865b83811015611acf57888303603f19018552815180516001600160a01b031684528781015188850152860151606087850181905281519085018190529088019060808501908a905b80821015611b755783516001600160a01b031683526020830192508a84019350600182019150611b4a565b50509588019593505090860190600101611b03565b60208152600061140260208301846119e9565b60208082526032908201527f4552433732313a207472616e7366657220746f206e6f6e20455243373231526560408201527131b2b4bb32b91034b6b83632b6b2b73a32b960711b606082015260800190565b60208082526031908201527f4552433732313a207472616e736665722063616c6c6572206973206e6f74206f6040820152701ddb995c881b9bdc88185c1c1c9bdd9959607a1b606082015260800190565b60008219821115611c5357611c53611d19565b500190565b600082611c6757611c67611d2f565b500490565b600082821015611c7e57611c7e611d19565b500390565b60005b83811015611c9e578181015183820152602001611c86565b83811115610ab95750506000910152565b600181811c90821680611cc357607f821691505b60208210811415611ce457634e487b7160e01b600052602260045260246000fd5b50919050565b6000600019821415611cfe57611cfe611d19565b5060010190565b600082611d1457611d14611d2f565b500690565b634e487b7160e01b600052601160045260246000fd5b634e487b7160e01b600052601260045260246000fd5b634e487b7160e01b600052604160045260246000fd5b6001600160e01b031981168114611d7157600080fd5b5056fea2646970667358221220bd75760a152c0f71a933ff62914b539654622cae41c8c092da4a44a3e9d8b5a764736f6c63430008040033",
  "linkReferences": {},
  "deployedLinkReferences": {}
}