{
  "contracts/SubContract.sol": {
    "SubContract": {
      "abi": [
        {
          "inputs": [],
          "name": "createUser",
          "outputs": [],
          "stateMutability": "nonpayable",
          "type": "function"
        },
        {
          "inputs": [
            {
              "internalType": "address",
              "name": "owner",
              "type": "address"
            }
          ],
          "name": "fetchMySubs",
          "outputs": [
            {
              "components": [
                {
                  "internalType": "address[]",
                  "name": "subTo",
                  "type": "address[]"
                },
                {
                  "internalType": "address[]",
                  "name": "subFrom",
                  "type": "address[]"
                }
              ],
              "internalType": "struct SubContract.Subscription",
              "name": "",
              "type": "tuple"
            }
          ],
          "stateMutability": "view",
          "type": "function"
        },
        {
          "inputs": [
            {
              "internalType": "address",
              "name": "_subscribeTo",
              "type": "address"
            }
          ],
          "name": "subscribe",
          "outputs": [],
          "stateMutability": "nonpayable",
          "type": "function"
        }
      ],
      "evm": {
        "bytecode": {
          "linkReferences": {},
          "object": "608060405234801561001057600080fd5b506107c8806100206000396000f3fe608060405234801561001057600080fd5b50600436106100415760003560e01c806325ad91ce1461004657806341a7726a14610050578063a59cf4d814610063575b600080fd5b61004e61008c565b005b61004e61005e366004610697565b6100ef565b610076610071366004610697565b610471565b6040516100839190610708565b60405180910390f35b60408051600081830181815260608301845282528251818152602080820185528084019190915233825281815292902081518051929391926100d192849201906105dd565b5060208281015180516100ea92600185019201906105dd565b505050565b336000908152602081815260408083206001600160a01b0385168452818420815483518186028101860190945280845291949093909261017292909186919083018282801561016757602002820191906000526020600020905b81546001600160a01b03168152600190910190602001808311610149575b505050505085610569565b905060006101dc836001018054806020026020016040519081016040528092919081815260200182805480156101d157602002820191906000526020600020905b81546001600160a01b031681526001909101906020018083116101b3575b505050505033610569565b9050806000191480156101f0575081600019145b156102bf578354600180820186556000868152602080822090930180546001600160a01b03199081166001600160a01b038b16179091558683018054938401815582528382209092018054339316831790559081529081905260409020845485919061025f9082908490610642565b50600182810180546102749284019190610642565b5050506001600160a01b038516600090815260208190526040902083548491906102a19082908490610642565b50600182810180546102b69284019190610642565b5090505061046a565b835484906102cf9060019061074a565b815481106102ed57634e487b7160e01b600052603260045260246000fd5b60009182526020909120015484546001600160a01b039091169085908490811061032757634e487b7160e01b600052603260045260246000fd5b600091825260209091200180546001600160a01b0319166001600160a01b03929092169190911790556001838101805490916103629161074a565b8154811061038057634e487b7160e01b600052603260045260246000fd5b6000918252602090912001546001840180546001600160a01b0390921691839081106103bc57634e487b7160e01b600052603260045260246000fd5b600091825260209091200180546001600160a01b0319166001600160a01b0392909216919091179055835484908061040457634e487b7160e01b600052603160045260246000fd5b600082815260209020810160001990810180546001600160a01b03191690550190556001830180548061044757634e487b7160e01b600052603160045260246000fd5b600082815260209020810160001990810180546001600160a01b03191690550190555b5050505050565b60408051808201909152606080825260208201526001600160a01b0382166000908152602081815260408083208151815460609481028201850184529281018381529093919284928491908401828280156104f557602002820191906000526020600020905b81546001600160a01b031681526001909101906020018083116104d7575b505050505081526020016001820180548060200260200160405190810160405280929190818152602001828054801561055757602002820191906000526020600020905b81546001600160a01b03168152600190910190602001808311610539575b50505091909252509195945050505050565b6000805b83518110156105d057826001600160a01b03168482815181106105a057634e487b7160e01b600052603260045260246000fd5b60200260200101516001600160a01b031614156105be5790506105d7565b806105c881610761565b91505061056d565b5060001990505b92915050565b828054828255906000526020600020908101928215610632579160200282015b8281111561063257825182546001600160a01b0319166001600160a01b039091161782556020909201916001909101906105fd565b5061063e929150610682565b5090565b8280548282559060005260206000209081019282156106325760005260206000209182015b82811115610632578254825591600101919060010190610667565b5b8082111561063e5760008155600101610683565b6000602082840312156106a8578081fd5b81356001600160a01b03811681146106be578182fd5b9392505050565b6000815180845260208085019450808401835b838110156106fd5781516001600160a01b0316875295820195908201906001016106d8565b509495945050505050565b60208152600082516040602084015261072460608401826106c5565b90506020840151601f1984830301604085015261074182826106c5565b95945050505050565b60008282101561075c5761075c61077c565b500390565b60006000198214156107755761077561077c565b5060010190565b634e487b7160e01b600052601160045260246000fdfea26469706673582212202887cbef5d23828089caab43eb9bfe6d459f341060d90458004a09a23552e37464736f6c63430008040033",
          "opcodes": "PUSH1 0x80 PUSH1 0x40 MSTORE CALLVALUE DUP1 ISZERO PUSH2 0x10 JUMPI PUSH1 0x0 DUP1 REVERT JUMPDEST POP PUSH2 0x7C8 DUP1 PUSH2 0x20 PUSH1 0x0 CODECOPY PUSH1 0x0 RETURN INVALID PUSH1 0x80 PUSH1 0x40 MSTORE CALLVALUE DUP1 ISZERO PUSH2 0x10 JUMPI PUSH1 0x0 DUP1 REVERT JUMPDEST POP PUSH1 0x4 CALLDATASIZE LT PUSH2 0x41 JUMPI PUSH1 0x0 CALLDATALOAD PUSH1 0xE0 SHR DUP1 PUSH4 0x25AD91CE EQ PUSH2 0x46 JUMPI DUP1 PUSH4 0x41A7726A EQ PUSH2 0x50 JUMPI DUP1 PUSH4 0xA59CF4D8 EQ PUSH2 0x63 JUMPI JUMPDEST PUSH1 0x0 DUP1 REVERT JUMPDEST PUSH2 0x4E PUSH2 0x8C JUMP JUMPDEST STOP JUMPDEST PUSH2 0x4E PUSH2 0x5E CALLDATASIZE PUSH1 0x4 PUSH2 0x697 JUMP JUMPDEST PUSH2 0xEF JUMP JUMPDEST PUSH2 0x76 PUSH2 0x71 CALLDATASIZE PUSH1 0x4 PUSH2 0x697 JUMP JUMPDEST PUSH2 0x471 JUMP JUMPDEST PUSH1 0x40 MLOAD PUSH2 0x83 SWAP2 SWAP1 PUSH2 0x708 JUMP JUMPDEST PUSH1 0x40 MLOAD DUP1 SWAP2 SUB SWAP1 RETURN JUMPDEST PUSH1 0x40 DUP1 MLOAD PUSH1 0x0 DUP2 DUP4 ADD DUP2 DUP2 MSTORE PUSH1 0x60 DUP4 ADD DUP5 MSTORE DUP3 MSTORE DUP3 MLOAD DUP2 DUP2 MSTORE PUSH1 0x20 DUP1 DUP3 ADD DUP6 MSTORE DUP1 DUP5 ADD SWAP2 SWAP1 SWAP2 MSTORE CALLER DUP3 MSTORE DUP2 DUP2 MSTORE SWAP3 SWAP1 KECCAK256 DUP2 MLOAD DUP1 MLOAD SWAP3 SWAP4 SWAP2 SWAP3 PUSH2 0xD1 SWAP3 DUP5 SWAP3 ADD SWAP1 PUSH2 0x5DD JUMP JUMPDEST POP PUSH1 0x20 DUP3 DUP2 ADD MLOAD DUP1 MLOAD PUSH2 0xEA SWAP3 PUSH1 0x1 DUP6 ADD SWAP3 ADD SWAP1 PUSH2 0x5DD JUMP JUMPDEST POP POP POP JUMP JUMPDEST CALLER PUSH1 0x0 SWAP1 DUP2 MSTORE PUSH1 0x20 DUP2 DUP2 MSTORE PUSH1 0x40 DUP1 DUP4 KECCAK256 PUSH1 0x1 PUSH1 0x1 PUSH1 0xA0 SHL SUB DUP6 AND DUP5 MSTORE DUP2 DUP5 KECCAK256 DUP2 SLOAD DUP4 MLOAD DUP2 DUP7 MUL DUP2 ADD DUP7 ADD SWAP1 SWAP5 MSTORE DUP1 DUP5 MSTORE SWAP2 SWAP5 SWAP1 SWAP4 SWAP1 SWAP3 PUSH2 0x172 SWAP3 SWAP1 SWAP2 DUP7 SWAP2 SWAP1 DUP4 ADD DUP3 DUP3 DUP1 ISZERO PUSH2 0x167 JUMPI PUSH1 0x20 MUL DUP3 ADD SWAP2 SWAP1 PUSH1 0x0 MSTORE PUSH1 0x20 PUSH1 0x0 KECCAK256 SWAP1 JUMPDEST DUP2 SLOAD PUSH1 0x1 PUSH1 0x1 PUSH1 0xA0 SHL SUB AND DUP2 MSTORE PUSH1 0x1 SWAP1 SWAP2 ADD SWAP1 PUSH1 0x20 ADD DUP1 DUP4 GT PUSH2 0x149 JUMPI JUMPDEST POP POP POP POP POP DUP6 PUSH2 0x569 JUMP JUMPDEST SWAP1 POP PUSH1 0x0 PUSH2 0x1DC DUP4 PUSH1 0x1 ADD DUP1 SLOAD DUP1 PUSH1 0x20 MUL PUSH1 0x20 ADD PUSH1 0x40 MLOAD SWAP1 DUP2 ADD PUSH1 0x40 MSTORE DUP1 SWAP3 SWAP2 SWAP1 DUP2 DUP2 MSTORE PUSH1 0x20 ADD DUP3 DUP1 SLOAD DUP1 ISZERO PUSH2 0x1D1 JUMPI PUSH1 0x20 MUL DUP3 ADD SWAP2 SWAP1 PUSH1 0x0 MSTORE PUSH1 0x20 PUSH1 0x0 KECCAK256 SWAP1 JUMPDEST DUP2 SLOAD PUSH1 0x1 PUSH1 0x1 PUSH1 0xA0 SHL SUB AND DUP2 MSTORE PUSH1 0x1 SWAP1 SWAP2 ADD SWAP1 PUSH1 0x20 ADD DUP1 DUP4 GT PUSH2 0x1B3 JUMPI JUMPDEST POP POP POP POP POP CALLER PUSH2 0x569 JUMP JUMPDEST SWAP1 POP DUP1 PUSH1 0x0 NOT EQ DUP1 ISZERO PUSH2 0x1F0 JUMPI POP DUP2 PUSH1 0x0 NOT EQ JUMPDEST ISZERO PUSH2 0x2BF JUMPI DUP4 SLOAD PUSH1 0x1 DUP1 DUP3 ADD DUP7 SSTORE PUSH1 0x0 DUP7 DUP2 MSTORE PUSH1 0x20 DUP1 DUP3 KECCAK256 SWAP1 SWAP4 ADD DUP1 SLOAD PUSH1 0x1 PUSH1 0x1 PUSH1 0xA0 SHL SUB NOT SWAP1 DUP2 AND PUSH1 0x1 PUSH1 0x1 PUSH1 0xA0 SHL SUB DUP12 AND OR SWAP1 SWAP2 SSTORE DUP7 DUP4 ADD DUP1 SLOAD SWAP4 DUP5 ADD DUP2 SSTORE DUP3 MSTORE DUP4 DUP3 KECCAK256 SWAP1 SWAP3 ADD DUP1 SLOAD CALLER SWAP4 AND DUP4 OR SWAP1 SSTORE SWAP1 DUP2 MSTORE SWAP1 DUP2 SWAP1 MSTORE PUSH1 0x40 SWAP1 KECCAK256 DUP5 SLOAD DUP6 SWAP2 SWAP1 PUSH2 0x25F SWAP1 DUP3 SWAP1 DUP5 SWAP1 PUSH2 0x642 JUMP JUMPDEST POP PUSH1 0x1 DUP3 DUP2 ADD DUP1 SLOAD PUSH2 0x274 SWAP3 DUP5 ADD SWAP2 SWAP1 PUSH2 0x642 JUMP JUMPDEST POP POP POP PUSH1 0x1 PUSH1 0x1 PUSH1 0xA0 SHL SUB DUP6 AND PUSH1 0x0 SWAP1 DUP2 MSTORE PUSH1 0x20 DUP2 SWAP1 MSTORE PUSH1 0x40 SWAP1 KECCAK256 DUP4 SLOAD DUP5 SWAP2 SWAP1 PUSH2 0x2A1 SWAP1 DUP3 SWAP1 DUP5 SWAP1 PUSH2 0x642 JUMP JUMPDEST POP PUSH1 0x1 DUP3 DUP2 ADD DUP1 SLOAD PUSH2 0x2B6 SWAP3 DUP5 ADD SWAP2 SWAP1 PUSH2 0x642 JUMP JUMPDEST POP SWAP1 POP POP PUSH2 0x46A JUMP JUMPDEST DUP4 SLOAD DUP5 SWAP1 PUSH2 0x2CF SWAP1 PUSH1 0x1 SWAP1 PUSH2 0x74A JUMP JUMPDEST DUP2 SLOAD DUP2 LT PUSH2 0x2ED JUMPI PUSH4 0x4E487B71 PUSH1 0xE0 SHL PUSH1 0x0 MSTORE PUSH1 0x32 PUSH1 0x4 MSTORE PUSH1 0x24 PUSH1 0x0 REVERT JUMPDEST PUSH1 0x0 SWAP2 DUP3 MSTORE PUSH1 0x20 SWAP1 SWAP2 KECCAK256 ADD SLOAD DUP5 SLOAD PUSH1 0x1 PUSH1 0x1 PUSH1 0xA0 SHL SUB SWAP1 SWAP2 AND SWAP1 DUP6 SWAP1 DUP5 SWAP1 DUP2 LT PUSH2 0x327 JUMPI PUSH4 0x4E487B71 PUSH1 0xE0 SHL PUSH1 0x0 MSTORE PUSH1 0x32 PUSH1 0x4 MSTORE PUSH1 0x24 PUSH1 0x0 REVERT JUMPDEST PUSH1 0x0 SWAP2 DUP3 MSTORE PUSH1 0x20 SWAP1 SWAP2 KECCAK256 ADD DUP1 SLOAD PUSH1 0x1 PUSH1 0x1 PUSH1 0xA0 SHL SUB NOT AND PUSH1 0x1 PUSH1 0x1 PUSH1 0xA0 SHL SUB SWAP3 SWAP1 SWAP3 AND SWAP2 SWAP1 SWAP2 OR SWAP1 SSTORE PUSH1 0x1 DUP4 DUP2 ADD DUP1 SLOAD SWAP1 SWAP2 PUSH2 0x362 SWAP2 PUSH2 0x74A JUMP JUMPDEST DUP2 SLOAD DUP2 LT PUSH2 0x380 JUMPI PUSH4 0x4E487B71 PUSH1 0xE0 SHL PUSH1 0x0 MSTORE PUSH1 0x32 PUSH1 0x4 MSTORE PUSH1 0x24 PUSH1 0x0 REVERT JUMPDEST PUSH1 0x0 SWAP2 DUP3 MSTORE PUSH1 0x20 SWAP1 SWAP2 KECCAK256 ADD SLOAD PUSH1 0x1 DUP5 ADD DUP1 SLOAD PUSH1 0x1 PUSH1 0x1 PUSH1 0xA0 SHL SUB SWAP1 SWAP3 AND SWAP2 DUP4 SWAP1 DUP2 LT PUSH2 0x3BC JUMPI PUSH4 0x4E487B71 PUSH1 0xE0 SHL PUSH1 0x0 MSTORE PUSH1 0x32 PUSH1 0x4 MSTORE PUSH1 0x24 PUSH1 0x0 REVERT JUMPDEST PUSH1 0x0 SWAP2 DUP3 MSTORE PUSH1 0x20 SWAP1 SWAP2 KECCAK256 ADD DUP1 SLOAD PUSH1 0x1 PUSH1 0x1 PUSH1 0xA0 SHL SUB NOT AND PUSH1 0x1 PUSH1 0x1 PUSH1 0xA0 SHL SUB SWAP3 SWAP1 SWAP3 AND SWAP2 SWAP1 SWAP2 OR SWAP1 SSTORE DUP4 SLOAD DUP5 SWAP1 DUP1 PUSH2 0x404 JUMPI PUSH4 0x4E487B71 PUSH1 0xE0 SHL PUSH1 0x0 MSTORE PUSH1 0x31 PUSH1 0x4 MSTORE PUSH1 0x24 PUSH1 0x0 REVERT JUMPDEST PUSH1 0x0 DUP3 DUP2 MSTORE PUSH1 0x20 SWAP1 KECCAK256 DUP2 ADD PUSH1 0x0 NOT SWAP1 DUP2 ADD DUP1 SLOAD PUSH1 0x1 PUSH1 0x1 PUSH1 0xA0 SHL SUB NOT AND SWAP1 SSTORE ADD SWAP1 SSTORE PUSH1 0x1 DUP4 ADD DUP1 SLOAD DUP1 PUSH2 0x447 JUMPI PUSH4 0x4E487B71 PUSH1 0xE0 SHL PUSH1 0x0 MSTORE PUSH1 0x31 PUSH1 0x4 MSTORE PUSH1 0x24 PUSH1 0x0 REVERT JUMPDEST PUSH1 0x0 DUP3 DUP2 MSTORE PUSH1 0x20 SWAP1 KECCAK256 DUP2 ADD PUSH1 0x0 NOT SWAP1 DUP2 ADD DUP1 SLOAD PUSH1 0x1 PUSH1 0x1 PUSH1 0xA0 SHL SUB NOT AND SWAP1 SSTORE ADD SWAP1 SSTORE JUMPDEST POP POP POP POP POP JUMP JUMPDEST PUSH1 0x40 DUP1 MLOAD DUP1 DUP3 ADD SWAP1 SWAP2 MSTORE PUSH1 0x60 DUP1 DUP3 MSTORE PUSH1 0x20 DUP3 ADD MSTORE PUSH1 0x1 PUSH1 0x1 PUSH1 0xA0 SHL SUB DUP3 AND PUSH1 0x0 SWAP1 DUP2 MSTORE PUSH1 0x20 DUP2 DUP2 MSTORE PUSH1 0x40 DUP1 DUP4 KECCAK256 DUP2 MLOAD DUP2 SLOAD PUSH1 0x60 SWAP5 DUP2 MUL DUP3 ADD DUP6 ADD DUP5 MSTORE SWAP3 DUP2 ADD DUP4 DUP2 MSTORE SWAP1 SWAP4 SWAP2 SWAP3 DUP5 SWAP3 DUP5 SWAP2 SWAP1 DUP5 ADD DUP3 DUP3 DUP1 ISZERO PUSH2 0x4F5 JUMPI PUSH1 0x20 MUL DUP3 ADD SWAP2 SWAP1 PUSH1 0x0 MSTORE PUSH1 0x20 PUSH1 0x0 KECCAK256 SWAP1 JUMPDEST DUP2 SLOAD PUSH1 0x1 PUSH1 0x1 PUSH1 0xA0 SHL SUB AND DUP2 MSTORE PUSH1 0x1 SWAP1 SWAP2 ADD SWAP1 PUSH1 0x20 ADD DUP1 DUP4 GT PUSH2 0x4D7 JUMPI JUMPDEST POP POP POP POP POP DUP2 MSTORE PUSH1 0x20 ADD PUSH1 0x1 DUP3 ADD DUP1 SLOAD DUP1 PUSH1 0x20 MUL PUSH1 0x20 ADD PUSH1 0x40 MLOAD SWAP1 DUP2 ADD PUSH1 0x40 MSTORE DUP1 SWAP3 SWAP2 SWAP1 DUP2 DUP2 MSTORE PUSH1 0x20 ADD DUP3 DUP1 SLOAD DUP1 ISZERO PUSH2 0x557 JUMPI PUSH1 0x20 MUL DUP3 ADD SWAP2 SWAP1 PUSH1 0x0 MSTORE PUSH1 0x20 PUSH1 0x0 KECCAK256 SWAP1 JUMPDEST DUP2 SLOAD PUSH1 0x1 PUSH1 0x1 PUSH1 0xA0 SHL SUB AND DUP2 MSTORE PUSH1 0x1 SWAP1 SWAP2 ADD SWAP1 PUSH1 0x20 ADD DUP1 DUP4 GT PUSH2 0x539 JUMPI JUMPDEST POP POP POP SWAP2 SWAP1 SWAP3 MSTORE POP SWAP2 SWAP6 SWAP5 POP POP POP POP POP JUMP JUMPDEST PUSH1 0x0 DUP1 JUMPDEST DUP4 MLOAD DUP2 LT ISZERO PUSH2 0x5D0 JUMPI DUP3 PUSH1 0x1 PUSH1 0x1 PUSH1 0xA0 SHL SUB AND DUP5 DUP3 DUP2 MLOAD DUP2 LT PUSH2 0x5A0 JUMPI PUSH4 0x4E487B71 PUSH1 0xE0 SHL PUSH1 0x0 MSTORE PUSH1 0x32 PUSH1 0x4 MSTORE PUSH1 0x24 PUSH1 0x0 REVERT JUMPDEST PUSH1 0x20 MUL PUSH1 0x20 ADD ADD MLOAD PUSH1 0x1 PUSH1 0x1 PUSH1 0xA0 SHL SUB AND EQ ISZERO PUSH2 0x5BE JUMPI SWAP1 POP PUSH2 0x5D7 JUMP JUMPDEST DUP1 PUSH2 0x5C8 DUP2 PUSH2 0x761 JUMP JUMPDEST SWAP2 POP POP PUSH2 0x56D JUMP JUMPDEST POP PUSH1 0x0 NOT SWAP1 POP JUMPDEST SWAP3 SWAP2 POP POP JUMP JUMPDEST DUP3 DUP1 SLOAD DUP3 DUP3 SSTORE SWAP1 PUSH1 0x0 MSTORE PUSH1 0x20 PUSH1 0x0 KECCAK256 SWAP1 DUP2 ADD SWAP3 DUP3 ISZERO PUSH2 0x632 JUMPI SWAP2 PUSH1 0x20 MUL DUP3 ADD JUMPDEST DUP3 DUP2 GT ISZERO PUSH2 0x632 JUMPI DUP3 MLOAD DUP3 SLOAD PUSH1 0x1 PUSH1 0x1 PUSH1 0xA0 SHL SUB NOT AND PUSH1 0x1 PUSH1 0x1 PUSH1 0xA0 SHL SUB SWAP1 SWAP2 AND OR DUP3 SSTORE PUSH1 0x20 SWAP1 SWAP3 ADD SWAP2 PUSH1 0x1 SWAP1 SWAP2 ADD SWAP1 PUSH2 0x5FD JUMP JUMPDEST POP PUSH2 0x63E SWAP3 SWAP2 POP PUSH2 0x682 JUMP JUMPDEST POP SWAP1 JUMP JUMPDEST DUP3 DUP1 SLOAD DUP3 DUP3 SSTORE SWAP1 PUSH1 0x0 MSTORE PUSH1 0x20 PUSH1 0x0 KECCAK256 SWAP1 DUP2 ADD SWAP3 DUP3 ISZERO PUSH2 0x632 JUMPI PUSH1 0x0 MSTORE PUSH1 0x20 PUSH1 0x0 KECCAK256 SWAP2 DUP3 ADD JUMPDEST DUP3 DUP2 GT ISZERO PUSH2 0x632 JUMPI DUP3 SLOAD DUP3 SSTORE SWAP2 PUSH1 0x1 ADD SWAP2 SWAP1 PUSH1 0x1 ADD SWAP1 PUSH2 0x667 JUMP JUMPDEST JUMPDEST DUP1 DUP3 GT ISZERO PUSH2 0x63E JUMPI PUSH1 0x0 DUP2 SSTORE PUSH1 0x1 ADD PUSH2 0x683 JUMP JUMPDEST PUSH1 0x0 PUSH1 0x20 DUP3 DUP5 SUB SLT ISZERO PUSH2 0x6A8 JUMPI DUP1 DUP2 REVERT JUMPDEST DUP2 CALLDATALOAD PUSH1 0x1 PUSH1 0x1 PUSH1 0xA0 SHL SUB DUP2 AND DUP2 EQ PUSH2 0x6BE JUMPI DUP2 DUP3 REVERT JUMPDEST SWAP4 SWAP3 POP POP POP JUMP JUMPDEST PUSH1 0x0 DUP2 MLOAD DUP1 DUP5 MSTORE PUSH1 0x20 DUP1 DUP6 ADD SWAP5 POP DUP1 DUP5 ADD DUP4 JUMPDEST DUP4 DUP2 LT ISZERO PUSH2 0x6FD JUMPI DUP2 MLOAD PUSH1 0x1 PUSH1 0x1 PUSH1 0xA0 SHL SUB AND DUP8 MSTORE SWAP6 DUP3 ADD SWAP6 SWAP1 DUP3 ADD SWAP1 PUSH1 0x1 ADD PUSH2 0x6D8 JUMP JUMPDEST POP SWAP5 SWAP6 SWAP5 POP POP POP POP POP JUMP JUMPDEST PUSH1 0x20 DUP2 MSTORE PUSH1 0x0 DUP3 MLOAD PUSH1 0x40 PUSH1 0x20 DUP5 ADD MSTORE PUSH2 0x724 PUSH1 0x60 DUP5 ADD DUP3 PUSH2 0x6C5 JUMP JUMPDEST SWAP1 POP PUSH1 0x20 DUP5 ADD MLOAD PUSH1 0x1F NOT DUP5 DUP4 SUB ADD PUSH1 0x40 DUP6 ADD MSTORE PUSH2 0x741 DUP3 DUP3 PUSH2 0x6C5 JUMP JUMPDEST SWAP6 SWAP5 POP POP POP POP POP JUMP JUMPDEST PUSH1 0x0 DUP3 DUP3 LT ISZERO PUSH2 0x75C JUMPI PUSH2 0x75C PUSH2 0x77C JUMP JUMPDEST POP SUB SWAP1 JUMP JUMPDEST PUSH1 0x0 PUSH1 0x0 NOT DUP3 EQ ISZERO PUSH2 0x775 JUMPI PUSH2 0x775 PUSH2 0x77C JUMP JUMPDEST POP PUSH1 0x1 ADD SWAP1 JUMP JUMPDEST PUSH4 0x4E487B71 PUSH1 0xE0 SHL PUSH1 0x0 MSTORE PUSH1 0x11 PUSH1 0x4 MSTORE PUSH1 0x24 PUSH1 0x0 REVERT INVALID LOG2 PUSH5 0x6970667358 0x22 SLT KECCAK256 0x28 DUP8 0xCB 0xEF 0x5D 0x23 DUP3 DUP1 DUP10 0xCA 0xAB NUMBER 0xEB SWAP12 INVALID PUSH14 0x459F341060D90458004A09A23552 0xE3 PUSH21 0x64736F6C6343000804003300000000000000000000 "
        },
        "methodIdentifiers": {
          "createUser()": "25ad91ce",
          "fetchMySubs(address)": "a59cf4d8",
          "subscribe(address)": "41a7726a"
        }
      }
    }
  }
}