{
  "_format": "hh-sol-artifact-1",
  "contractName": "SubContract",
  "sourceName": "contracts/SubContract.sol",
  "abi": [
    {
      "inputs": [],
      "name": "createUser",
      "outputs": [],
      "stateMutability": "nonpayable",
      "type": "function"
    },
    {
      "inputs": [],
      "name": "fetchMySubs",
      "outputs": [
        {
          "components": [
            {
              "internalType": "address[]",
              "name": "subTo",
              "type": "address[]"
            },
            {
              "internalType": "address[]",
              "name": "subFrom",
              "type": "address[]"
            }
          ],
          "internalType": "struct SubContract.Subscription",
          "name": "",
          "type": "tuple"
        }
      ],
      "stateMutability": "view",
      "type": "function"
    },
    {
      "inputs": [
        {
          "internalType": "address",
          "name": "_subscribeTo",
          "type": "address"
        }
      ],
      "name": "subscribe",
      "outputs": [],
      "stateMutability": "nonpayable",
      "type": "function"
    }
  ],
  "bytecode": "0x608060405234801561001057600080fd5b506107b3806100206000396000f3fe608060405234801561001057600080fd5b50600436106100415760003560e01c806325ad91ce1461004657806341a7726a14610050578063f4940e0914610063575b600080fd5b61004e610081565b005b61004e61005e366004610682565b6100e4565b61006b610466565b60405161007891906106f3565b60405180910390f35b60408051600081830181815260608301845282528251818152602080820185528084019190915233825281815292902081518051929391926100c692849201906105c8565b5060208281015180516100df92600185019201906105c8565b505050565b336000908152602081815260408083206001600160a01b0385168452818420815483518186028101860190945280845291949093909261016792909186919083018282801561015c57602002820191906000526020600020905b81546001600160a01b0316815260019091019060200180831161013e575b505050505085610554565b905060006101d1836001018054806020026020016040519081016040528092919081815260200182805480156101c657602002820191906000526020600020905b81546001600160a01b031681526001909101906020018083116101a8575b505050505033610554565b9050806000191480156101e5575081600019145b156102b4578354600180820186556000868152602080822090930180546001600160a01b03199081166001600160a01b038b161790915586830180549384018155825283822090920180543393168317905590815290819052604090208454859190610254908290849061062d565b5060018281018054610269928401919061062d565b5050506001600160a01b03851660009081526020819052604090208354849190610296908290849061062d565b50600182810180546102ab928401919061062d565b5090505061045f565b835484906102c490600190610735565b815481106102e257634e487b7160e01b600052603260045260246000fd5b60009182526020909120015484546001600160a01b039091169085908490811061031c57634e487b7160e01b600052603260045260246000fd5b600091825260209091200180546001600160a01b0319166001600160a01b039290921691909117905560018381018054909161035791610735565b8154811061037557634e487b7160e01b600052603260045260246000fd5b6000918252602090912001546001840180546001600160a01b0390921691839081106103b157634e487b7160e01b600052603260045260246000fd5b600091825260209091200180546001600160a01b0319166001600160a01b039290921691909117905583548490806103f957634e487b7160e01b600052603160045260246000fd5b600082815260209020810160001990810180546001600160a01b03191690550190556001830180548061043c57634e487b7160e01b600052603160045260246000fd5b600082815260209020810160001990810180546001600160a01b03191690550190555b5050505050565b6040805180820190915260608082526020820152336000908152602081815260408083208151815460609481028201850184529281018381529093919284928491908401828280156104e157602002820191906000526020600020905b81546001600160a01b031681526001909101906020018083116104c3575b505050505081526020016001820180548060200260200160405190810160405280929190818152602001828054801561054357602002820191906000526020600020905b81546001600160a01b03168152600190910190602001808311610525575b505050919092525091949350505050565b6000805b83518110156105bb57826001600160a01b031684828151811061058b57634e487b7160e01b600052603260045260246000fd5b60200260200101516001600160a01b031614156105a95790506105c2565b806105b38161074c565b915050610558565b5060001990505b92915050565b82805482825590600052602060002090810192821561061d579160200282015b8281111561061d57825182546001600160a01b0319166001600160a01b039091161782556020909201916001909101906105e8565b5061062992915061066d565b5090565b82805482825590600052602060002090810192821561061d5760005260206000209182015b8281111561061d578254825591600101919060010190610652565b5b80821115610629576000815560010161066e565b600060208284031215610693578081fd5b81356001600160a01b03811681146106a9578182fd5b9392505050565b6000815180845260208085019450808401835b838110156106e85781516001600160a01b0316875295820195908201906001016106c3565b509495945050505050565b60208152600082516040602084015261070f60608401826106b0565b90506020840151601f1984830301604085015261072c82826106b0565b95945050505050565b60008282101561074757610747610767565b500390565b600060001982141561076057610760610767565b5060010190565b634e487b7160e01b600052601160045260246000fdfea264697066735822122031ec0ad4bcb360c2e5cc340a2ea296c57dcb6151c9729303f5afcb467c1a356a64736f6c63430008040033",
  "linkReferences": {},
  "deployedLinkReferences": {}
}