{
  "_format": "hh-sol-artifact-1",
  "contractName": "SubContract",
  "sourceName": "contracts/SubContract.sol",
  "abi": [
    {
      "inputs": [],
      "name": "createUser",
      "outputs": [],
      "stateMutability": "nonpayable",
      "type": "function"
    },
    {
      "inputs": [
        {
          "internalType": "address",
          "name": "owner",
          "type": "address"
        }
      ],
      "name": "fetchMySubs",
      "outputs": [
        {
          "components": [
            {
              "internalType": "address[]",
              "name": "subTo",
              "type": "address[]"
            },
            {
              "internalType": "address[]",
              "name": "subFrom",
              "type": "address[]"
            }
          ],
          "internalType": "struct SubContract.Subscription",
          "name": "",
          "type": "tuple"
        }
      ],
      "stateMutability": "view",
      "type": "function"
    },
    {
      "inputs": [
        {
          "internalType": "address",
          "name": "_subscribeTo",
          "type": "address"
        }
      ],
      "name": "subscribe",
      "outputs": [],
      "stateMutability": "nonpayable",
      "type": "function"
    }
  ],
  "bytecode": "0x608060405234801561001057600080fd5b506107c8806100206000396000f3fe608060405234801561001057600080fd5b50600436106100415760003560e01c806325ad91ce1461004657806341a7726a14610050578063a59cf4d814610063575b600080fd5b61004e61008c565b005b61004e61005e366004610697565b6100ef565b610076610071366004610697565b610471565b6040516100839190610708565b60405180910390f35b60408051600081830181815260608301845282528251818152602080820185528084019190915233825281815292902081518051929391926100d192849201906105dd565b5060208281015180516100ea92600185019201906105dd565b505050565b336000908152602081815260408083206001600160a01b0385168452818420815483518186028101860190945280845291949093909261017292909186919083018282801561016757602002820191906000526020600020905b81546001600160a01b03168152600190910190602001808311610149575b505050505085610569565b905060006101dc836001018054806020026020016040519081016040528092919081815260200182805480156101d157602002820191906000526020600020905b81546001600160a01b031681526001909101906020018083116101b3575b505050505033610569565b9050806000191480156101f0575081600019145b156102bf578354600180820186556000868152602080822090930180546001600160a01b03199081166001600160a01b038b16179091558683018054938401815582528382209092018054339316831790559081529081905260409020845485919061025f9082908490610642565b50600182810180546102749284019190610642565b5050506001600160a01b038516600090815260208190526040902083548491906102a19082908490610642565b50600182810180546102b69284019190610642565b5090505061046a565b835484906102cf9060019061074a565b815481106102ed57634e487b7160e01b600052603260045260246000fd5b60009182526020909120015484546001600160a01b039091169085908490811061032757634e487b7160e01b600052603260045260246000fd5b600091825260209091200180546001600160a01b0319166001600160a01b03929092169190911790556001838101805490916103629161074a565b8154811061038057634e487b7160e01b600052603260045260246000fd5b6000918252602090912001546001840180546001600160a01b0390921691839081106103bc57634e487b7160e01b600052603260045260246000fd5b600091825260209091200180546001600160a01b0319166001600160a01b0392909216919091179055835484908061040457634e487b7160e01b600052603160045260246000fd5b600082815260209020810160001990810180546001600160a01b03191690550190556001830180548061044757634e487b7160e01b600052603160045260246000fd5b600082815260209020810160001990810180546001600160a01b03191690550190555b5050505050565b60408051808201909152606080825260208201526001600160a01b0382166000908152602081815260408083208151815460609481028201850184529281018381529093919284928491908401828280156104f557602002820191906000526020600020905b81546001600160a01b031681526001909101906020018083116104d7575b505050505081526020016001820180548060200260200160405190810160405280929190818152602001828054801561055757602002820191906000526020600020905b81546001600160a01b03168152600190910190602001808311610539575b50505091909252509195945050505050565b6000805b83518110156105d057826001600160a01b03168482815181106105a057634e487b7160e01b600052603260045260246000fd5b60200260200101516001600160a01b031614156105be5790506105d7565b806105c881610761565b91505061056d565b5060001990505b92915050565b828054828255906000526020600020908101928215610632579160200282015b8281111561063257825182546001600160a01b0319166001600160a01b039091161782556020909201916001909101906105fd565b5061063e929150610682565b5090565b8280548282559060005260206000209081019282156106325760005260206000209182015b82811115610632578254825591600101919060010190610667565b5b8082111561063e5760008155600101610683565b6000602082840312156106a8578081fd5b81356001600160a01b03811681146106be578182fd5b9392505050565b6000815180845260208085019450808401835b838110156106fd5781516001600160a01b0316875295820195908201906001016106d8565b509495945050505050565b60208152600082516040602084015261072460608401826106c5565b90506020840151601f1984830301604085015261074182826106c5565b95945050505050565b60008282101561075c5761075c61077c565b500390565b60006000198214156107755761077561077c565b5060010190565b634e487b7160e01b600052601160045260246000fdfea26469706673582212202887cbef5d23828089caab43eb9bfe6d459f341060d90458004a09a23552e37464736f6c63430008040033",
  "linkReferences": {},
  "deployedLinkReferences": {}
}